:0300000002007784
:0C007700787FE4F6D8FD75810702008355
:0F006700E4FFE4FE0EEED394C840F90FBF1AF386
:010076002267
:1000030075A0FF7580FFE4FFE59054F0FEE5905482
:100013000FFD14B40800504B90002975F003A4C5DC
:100023008325F0C5837302004102004502004902A3
:10003300004B02004E020057020049020063C2B1A6
:100043008009C2B1800E80118EA022EEC4540FF538
:1000530080D2B1228E80D2B122EEC4540FF5A022F9
:030063008EA0224A
:010066002277
:07008300C2B012000380F976
:00000001FF
