:0300000002018377
:0C018300787FE4F6D8FD75811E0201CAE9
:1003740001081E010900010A00080B01020304051B
:0F0384000607080A13808182838485868788890B
:0F03B100E4FFE4FE0EEED394C840F90FBF1AF339
:0103C000221A
:10000E00E4FDF58075900FAF90EF640F7003020062
:10001E00D41203B1AF90EF640F70030200D4759049
:10002E00F0AE90BF0E28EE2490601B24C060122408
:10003E00E0600924F070137D040200D47D030200F9
:10004E00D47D020200D47D01807CE4FD8078BF0D5A
:10005E0025EE2490601824C0601024E0600824F07F
:10006E0070107D0880607D07805C7D0680587D0560
:10007E008054E4FD8050BF0B25EE2490601824C000
:10008E00601024E0600824F070107D0C80387D0B29
:10009E0080347D0A80307D09802CE4FD8028BF07E6
:1000AE0025AF06EE2490601824C0601024E060088E
:1000BE0024F070107D10800E7D0F800A7D0E80065C
:0D00CE007D0D8002E4FDED540FF580AF05BF
:0100DB002202
:1000DC008E1D8F1EE51D600302017DE51E14B410FC
:1000EC0000400302017D90010075F003A4C5832537
:1000FC00F0C5837302013002013202013702013C68
:10010C0002014102014602014B020150020155025B
:10011C00015A02015F02016402016902016E0201CF
:10012C0073020178804B7580018049758002804490
:10013C00758003803F758004803A75800580357525
:10014C0080068030758007802B758008802675802E
:10015C0009802175800A801C75800B801775800CB6
:10016C00801275800D800D75800E800875800F8053
:07017C0003E4F580AF1E2231
:08028C0074132CF8E6FDAF101D
:10029400C2B1E4FBEBC394105022EBC394085004A6
:1002A400AE078002AE057A08EE3392B0EE25E0FE8A
:0E02B400D2B2C2B2DAF274082BFB80D8D2B1FB
:0102C2002219
:100394007DFF7F091202940F1202947D070F12024F
:0D03A400947D010F1202941D7F0F02029440
:10035100EF75F00A84FCEF75F00A84AFF074132F87
:10036100F8E6FDAF0C12029474132CF8E6FDAF0B06
:03037100020294F1
:07032700AF08120351AF0AF9
:10032E00EF75F00A84FCEF75F00A84AFF074132FAA
:10033E00F8E6FDAF0E12029474132CF8E6FDAF0D25
:03034E0002029414
:1002C300AC07ECC3940A500712028CAD13801BECED
:1002D300D3940A400CEC9414500712028CAD148092
:1002E30009AD19AF10120294AD19AF0F120294AFFA
:0202F3000422E3
:10020F00120327A2A0B3500FA2A0B340FBE50A60D0
:10021F000675081EE4F50AA2A2B3500EA2A2B340BF
:10022F00FBE508C3943C50020508A2A3B35012A2E9
:10023F00A3B340FBE508D3940040031508227508CB
:02024F001E226D
:0E03C100D2AFD2A9758901758CD8758AEF224A
:10025100790112020F20A1FAA2A1B340FB1203946B
:100261001203C1D28C1203271200DC12000E8F0A76
:10027100E50A600BAF011202C31202C3A90709E527
:0B0281000A7004E50870DEC28C80C724
:03000B000202F5F9
:1002F500C0E0C0D0E509C39464500B0509E509B415
:100305003213C2B7800FD2B77509001508E508701A
:1003150004C2B780F8758CD8758AEFD28CD0D0D04E
:02032500E032C4
:10018F00020251E493A3F8E493A34003F68001F233
:10019F0008DFF48029E493A3F85407240CC8C33371
:1001AF00C4540F4420C8834004F456800146F6DF40
:1001BF00E4800B0102040810204080900374E47E59
:1001CF00019360BCA3FF543F30E509541FFEE49335
:1001DF00A360010ECF54C025E060A840B8E493A3FC
:1001EF00FAE493A3F8E493A3C8C582C8CAC583CA27
:1001FF00F0A3C8C582C8CAC583CADFE9DEE780BEDF
:010393000069
:00000001FF
