:0300000002000EED
:0C000E00787FE4F6D8FD75811D020055D6
:1001E80001081E010900010A00080B0102030405A9
:0F01F8000607080A138081828384858687888999
:10009A00E4F51D7590FFAF90E5905FF4604BEF2497
:1000AA0081603E24C0603524E0602C24F060232463
:1000BA00F8601A24FC601124FE6008147028751D6B
:1000CA00018026751D028021751D03801C751D0483
:1000DA008017751D058012751D06800D751D078018
:0B00EA0008751D088003E4F51DAF1D24
:0100F50022E8
:1000F600C2B1E4FBEBC394105022EBC39408500446
:10010600AE078002AE057A08EE3392B0EE25E0FE29
:0E011600D2B2C2B2DAF274082BFB80D8D2B19A
:0101240022B8
:100208007D017F0C1200F67D071F1200F67DF51F99
:090218001200F67DFF1F0200F642
:1001C500EF75F00A84FCEF75F00A84AFF074132F15
:1001D500F8E6FDAF0C1200F674132CF8E6FDAF0B34
:0301E5000200F61F
:07012500AF081201C5AF0A8B
:10012C00EF75F00A84FCEF75F00A84AFF074132FAE
:10013C00F8E6FDAF0E1200F674132CF8E6FDAF0DC9
:03014C000200F6B8
:1001A000120125A2A0B3501CA2A0B340FBE50A6037
:1001B0000675081EE4F50AE508C3943C50030508DB
:0501C00022E4F5082215
:0E022100D2AFD2A9758901758CD8758AEF22EB
:100179001201A020A1FAA2A1B340FB1202081202A7
:1001890021D28C12012512009A8F0AE50A7004E522
:070199000870F0C28C80D950
:03000B0002014FA0
:10014F00C0E0C0D0E509C39464500B0509E509B4BC
:10015F00320BC2B78007D2B77509001508758CD856
:0A016F00758AEFD28CD0D0D0E032B8
:10001A00020179E493A3F8E493A34003F68001F282
:10002A0008DFF48029E493A3F85407240CC8C333E7
:10003A00C4540F4420C8834004F456800146F6DFB6
:10004A00E4800B01020408102040809001E8E47E5D
:10005A00019360BCA3FF543F30E509541FFEE493AB
:10006A00A360010ECF54C025E060A840B8E493A372
:10007A00FAE493A3F8E493A3C8C582C8CAC583CA9D
:10008A00F0A3C8C582C8CAC583CADFE9DEE780BE55
:0102070000F6
:00000001FF
